:040000008831BB2C5C
:1000080080312000141E12283D00A01C1228A010C8
:0E001800200014120130A1000030A2000900E7
:0E002600F201F101F001F801F30100300800D1
:10003400FB14FB1F2428FF30F300F200F100F00052
:08004400FA0DF20CFF30080078
:08004C00FA1FF2130030080056
:100054007B15FB1F34280130F300F201F101F0019C
:08006400FA0DF20CFF30080058
:10006C00A0017208031D4B287108F2007008F10002
:10007C00F001A0157208031D4B287108F200F10164
:10008C00A01120167208031959282008F302031D29
:10009C00031C5D280310F21B6128F00DF10DF20D0D
:1000AC00F30B51285D280130FC001320642802302A
:0E00BC00FC002A2064280430FC0026200800E6
:1000CA007C189B28FC186C287C19BA286528A00182
:1000DA007208031D8C287108F2007008F100780874
:1000EA00F000F801A0157208031D8C287108F200AF
:1000FA007008F100F001A01120167208031D8C2867
:10010A007108F200F101A01572080319AE2820083F
:10011A00F302031D031CB2280310F21B9B28F80DDF
:10012A00F00DF10DF20DF30B9228B2287B1B701C17
:10013A00B628F81FB628F00A0319F10A0319F20AB9
:10014A00031DB628F20CF10CF00CF30A0319BA28B5
:10015A00B6280130FC001320BD280230FC002A20FA
:10016A00BD280430FC002620BD280830FC001A20D7
:04017A000000080079
:10017E007B14FB1FCA28F201FA1FFF30F200F100B8
:0A018E00F000FA0DF20CFF3008003B
:10019800200072087606A000F801F90173087702BA
:1001A800031CEE287708FD007308F7007D08F300AC
:1001B8007608FD007208F6007D08F2007508FD005B
:1001C8007108F5007D08F1007408FD007008F4005E
:1001D8007D08F0007708031967297208FA00F217FA
:1001E800F61777087302F7000319212908307702F8
:1001F800031C1729F7007408F9007508F40076083D
:10020800F500F60108307702031C1729F700740877
:10021800F9007508F400F50108307702031C172966
:100228007A08F20067297708031921290310F60CC8
:10023800F50CF40CF90CF70B1A29A01F2E29F90953
:10024800F409F509F609F90A0319F40A0319F50A74
:100258000319F60A7908F80774080318740FF007E9
:1002680075080318750FF10776080318760FF2075B
:10027800A01B4729031C5729F20CF10CF00CF80CB1
:10028800F30F5729632903185B29F809F009F109C5
:10029800F209F80A0319F00A0319F10A0319F20A14
:1002A8008030FA065F290130FC0065206929023098
:1002B800FC00652069290430FC00362069290830D3
:0E02C800FC001A2069290030FC00000008002C
:1002D6002000FA017308031D7A147708031DFA1427
:1002E6007A080319B629033A031981297A187E294F
:1002F600F61FB429B229F21FB229B429720880392F
:10030600FA00F21376088039F6137A0603198F2954
:100316007A080319B229B4297708730203199629B2
:10032600031CAA29AE297608720203199D29031C0B
:10033600AA29AE29750871020319A429031CAA2942
:10034600AE29740870020319B6290318AE29FA08F3
:100356000319B429B229FA080319B229B4290314D6
:0E036600080003100800031403150800080027
:0A03740020008030F606CC200800BF
:10037E0020007008F8007108F0007208F100730890
:10038E00F200F301FB01FC019E30F300FA01F21FB3
:10039E00DC29F809F009F109F209F80A0319F00A43
:1003AE000319F10A0319F20AFA170230FC0065204C
:0203BE00080035
:1003C0002000FB01FC01F80173080319572A720889
:1003D000FA00F2179E30F302F31F472AF309F30ADB
:1003E00008307302031C1C2AF300F80D7008F80093
:1003F0007108F0007208F100F20108307302031C6A
:100400001C2AF300F80D7008F8007108F000F101E3
:1004100008307302031C1C2AF300F80D7008F80062
:10042000F00108307302031C1C2AF300F80DF801D8
:100430007308031D0310262A73080319262A0310C4
:10044000F20CF10CF00CF80CF30B1F2A7B1B781C40
:10045000342A031C342AF80A0319F00A0319F10A92
:100460000319F20AF21B542AFA1F572AF209F1095A
:10047000F009F809F80A0319F00A0319F10A031937
:10048000F20A572AF201F101F001F801572A7B1410
:10049000FB1F5A2AF201FA1F5A2AF200F100F0005B
:1004A000F800FA0DF20C5A2A0130FC005C2A0030E8
:1004B000FC005C2AFF30FC00FC080319602ABF2006
:1004C0007208F3007108F2007008F1007808F0007B
:0204D000080022
:1004D2002000FB017308031D77080319BF2A720865
:1004E2007606FA007708F3077E30031C7C2AF302B3
:1004F2000318C22A7F2AF302031CC52A7208F800D5
:100502007108FC007008FD00F817F6170310F201DD
:10051200F101F0011830A0007D1C992A7408F0073F
:1005220075080318750FF10776080318760FF2079E
:10053200F20CF10CF00CF80CFC0CFD0C0310A00BEF
:100542008D2AF21BA92AF80DF00DF10DF20DF3031D
:100552007B1B701CBB2AF81FBB2AF00A0319F10A85
:100562000319F20A031DBB2AF20CF10CF00CF30A78
:100572000319C22AFA1FF2130030C72A01301320CE
:10058200C72A02301A20C72A04302A200000080095
:06059200FB15FF3008001C
:100598007408003A031DE52A7508003A031DE52A88
:1005A8007608003A031DE52A7708003A031DE52A74
:1005B800FF30F000FF30F1007F30F200FF30F30031
:1005C8007F2B200077080319732B73080319762BE8
:1005D800720876068039FA00F217F617A001720839
:1005E800F8007108FC007008FD007408FD02750829
:1005F800031C750FFC027608031C760FF802F8013D
:10060800FC01FD01031C0F2B0310F20CF10CF00C84
:10061800F80C0130A0007708F302031C192B7E3078
:100628002007F3070318792B1E2B7E302007F307CA
:10063800031C7C2B1830FA07FD0DFC0DF80DF00D8E
:10064800F10DF20DA00D7408F0027508031C750F6A
:10065800F1027608031C760FF202760DA004201C26
:10066800372B7D14422B7408F00775080318750F93
:10067800F10776080318760AF2077D10FA031F308F
:100688007A05031D202B7B1B7D1C692B0310F00DA5
:10069800F10DF20DA00D7408F0027508031C750F1A
:1006A800F1027608031C760FF202760D2004013958
:1006B800FD070318FC0A0319F80A031D692BF80C37
:1006C800FC0CFD0CF30A0319792BFA1FF8137808B0
:1006D800F2007C08F1007D08F00000307E2B01302C
:1006E800C9227E2B023013207E2B04301A207E2B49
:0806F80008302A200000080070
:100700000F3021002C05F000F019882B9D12892B49
:100710009D1670198D2B1D128E2B1D16F018922B05
:100720009D11932B9D157018972B1D11982B1D153E
:0E0730001330FD00FD0B9A2B000000000800A6
:10073E0021002F08F000F101F201F301FF30F00566
:10074E000030F1057008B4007108B5007F307002FA
:10075E00F2000030713BF3007208B4007308B5006C
:10076E0080307306F00080307002031DC02B003005
:10077E0072020318E42BF401F501F601F7012C08BF
:10078E00F0002D08F1002E08F2002F08F3006B2167
:10079E00013003180030F00070080319DF2B003011
:1007AE00F0000030F1008030F2007F30F3003D2C7D
:1007BE00F001F101F201F3013D2C21003508003C5E
:1007CE00031DEB2B3408183C0318F62B2C08F000F5
:1007DE002D08F1002E08F2002F08F3003D2C2C08F6
:1007EE00F0002D08F1002E08F2002F08F300E02192
:1007FE00BF2170082100B0007108B1007208B2006C
:10080E007308B3007008F4007108F5007208F60062
:10081E007308F7002C08F0002D08F1002E08F200E6
:10082E002F08F3006B21013003180030F000700820
:10083E000319342C0030F4000030F5000030F600BF
:10084E007F30F70021003008F0003108F100320847
:10085E00F2003308F300BA213D2C21003008F000DD
:0E086E003108F1003208F2003308F3000800F0
:10087C00AC302100B2000030B300033032078400EA
:10088C000030333D850000083007F1000030313D69
:10089C00F2007108B0007208B10080307206F000EE
:1008AC0080307002031D5C2C003071020318632C25
:1008BC00F001F101F201F301A52C8030F000803041
:1008CC0031067002031D6C2C3008FF3C0318942C6D
:1008DC00F401F501F601F7012C08F0002D08F100E8
:1008EC002E08F2002F08F3006B21013003180030A2
:1008FC00F000700803198B2CFF30F000FF30F10072
:10090C00FF30F200FF30F300A52CFF30F000FF3079
:10091C00F1007F30F200FF30F300A52C03302100F2
:10092C00320786000030333D8700300881002C08E8
:10093C00F0002D08F1002E08F2002F08F30008003B
:10094C0021003208F0003308F100F035F10DF035DC
:10095C00F10D7008300784007108313D85000008E6
:10096C00B40001310008B50001310008B6000131B6
:10097C000008B700320833040319FE2C2C08F000D1
:10098C002D08F1002E08F2002F08F3003408F400B3
:10099C003508F5003608F6003708F70069220130F3
:1009AC002100B2020030B33B3208F4003308F500EA
:1009BC00F435F50DF435F50D740830078400750821
:1009CC00313D85000008F40001310008F5000131CB
:1009DC000008F60001310008F700CC207008210057
:1009EC00B4007108B5007208B6007308B700C02CCB
:1009FC003408F0003508F1003608F2003708F3002F
:020A0C000800E0
:100A0E00AC30F4000030F500033074078400003081
:100A1E00753D85007E300002F000F1010030F13BA3
:100A2E0021003008860031088700700881007108A7
:100A3E00413181000330740786000030753D870018
:100A4E007E3081002C08F0002D08F1002E08F200F7
:060A5E002F08F300080060
:100A6400200073087706031D442D72087606031DC3
:100A7400442D71087506031D442D7008740603196E
:0A0A84000315080003110800080024
:100A8E002000FB0173080319832D7208FA00F21778
:100A9E008E30F302F31F862DF309F30A083073022A
:100AAE00031C692DF300F10D7208F100F2010830FC
:100ABE007302031C692DF300F10DF1017308031D80
:100ACE000310712D73080319712D0310F20CF10C24
:100ADE00F30B6C2D7B1B711C7B2D031C7B2DF10AE4
:100AEE000319F20AF21B922DFA1F952DF209F10944
:100AFE00F10A0319F20A952DF201F101952D7B14DD
:100B0E00FB1F982DF201FA1F982DFF30F200F10015
:100B1E00FA0DF20C982D0130FC009A2D0030FC00DD
:100B2E009A2DFF30FC00FC0803199E2DBF20710882
:080B3E00F0007208F10008004C
:100B460021001C08F400F5017408F300F2011B08EB
:0E0B5600F000F1017208F0077308F13D08008D
:100B640020007008F8007108F000F101F201F301AF
:100B7400FB01FC019630F300FA01F01FC72DF809C0
:100B8400F009F80A0319F00AFA177008F100780856
:0A0B9400F000F801F201362008001D
:100B9E00F401F501F601F70121002008F00021080B
:100BAE00F1002208F2002308F30032250130031D64
:100BBE000030F00070080319ED2D0030F000003009
:100BCE00F1000030F2007F30F300FB2E21002008F0
:100BDE00F4002108F5002208F6002308F700FC3087
:100BEE00F000D430F1003230F2008530F3006B218A
:100BFE00013003180030F000700803190F2EFF307B
:100C0E00F000FF30F1007F30F200FF30F300FB2EDA
:100C1E004F30F400AC30F500AE30F6008530F70002
:100C2E0021002008F0002108F1002208F20023081C
:100C3E00F3006B21013003180030F0007008031927
:100C4E002D2EF001F101F201F301FB2EF401F5015D
:100C5E00F601F70121002008F0002108F10022081A
:100C6E00F2002308F3006B21013003180030F0006E
:100C7E007008EF00700803194D2E00302100A006F9
:100C8E000030A1068030A2060030A3062100200805
:100C9E00F0002108F1002208F2002308F3003B3097
:100CAE00F400AA30F5003830F6007F30F7006922E4
:100CBE0070082100A0007108A1007208A20073083C
:100CCE00A3007008AC007108AD007208AE00730886
:100CDE00AF009F2347257008ED007108EE00B22586
:100CEE007008F4007108F5007208F6007308F7003A
:100CFE0021002008F0002108F1002208F20023084C
:100D0E00F300BA2170082100A0007108A10072083A
:100D1E00A2007308A3007008AC007108AD00720841
:100D2E00AE007308AF001730B0008D30B10009303F
:100D3E00B2000030B300A6247008AC007108AD00FC
:100D4E007208AE007308AF0020006D082100B000DD
:100D5E0020006E082100B1003E2470082100A00082
:100D6E007108A1007208A2007308A30020006F088A
:100D7E000319F22EFF30F400FF30F5007F30F6003D
:100D8E00FF30F70021002008F0002108F1002208B2
:100D9E00F2002308F30032250130031D0030F0006D
:100DAE0070080319DF2EF001F101F201F301FB2EA1
:100DBE0021002008F4002108F5002208F60023087F
:100DCE00F7000030F0000030F1000030F2007F300C
:100DDE00F300CC22FB2E21002008F0002108F100A8
:0A0DEE002208F2002308F3000800B9
:100DF80021002008F4002108F5002208F600230845
:100E0800F700F001F101F201F3016B210130031C3D
:100E18000030F00070080319162FF001F101F201FB
:100E2800F3017F2F21002008AC002108AD00220823
:100E3800AE002308AF006D30B0000030B1000725C8
:100E48000030F4000030F5000030F6008030F70084
:100E580069220030F4000030F5000030F6007F30E1
:100E6800F700BA2170082100A0007108A1007208DB
:100E7800A2007308A30001302000ED020030EE3B11
:100E880070082100AC007108AD007208AE0073084C
:100E9800AF003F30B0008D30B1000830B2000030F4
:100EA800B300A6247008A4007108A5007208A60063
:100EB8007308A7002408A0002508A1002608A2009E
:100EC8002708A30020006D08F0006E08F100B22585
:100ED8001830F4007230F5003130F6007E30F7003B
:100EE800692221002408F4002508F5002608F600E8
:080EF8002708F700CC200800D8
:100F000000302000E7000030E8000030E9008230C7
:100F1000EA00E301E401E501E601EB01EC016B0805
:100F2000F0006C08F100B2256708F4006808F500CD
:100F30006908F6006A08F7006B21013003180030D9
:100F4000F00070080319D52FED01EE018831002063
:100F500080317008DF007108E0007208E10073085A
:100F6000E2007008F4007108F5007208F6007308DA
:100F7000F7006308F0006408F1006508F2006608F5
:100F8000F3006B21013003180030F00070080319E2
:100F9000D12F5F08E3006008E4006108E500620803
:100FA000E600EB0A0319EC0A8F2F6308F0006408CF
:0C0FB000F1006508F2006608F30008007C
:100FBC00FF3020005F053D00A300003020005F05DE
:100FCC00F3006008FF39F4007408F000F1017008B8
:080FDC003D00A40011170800FC
:100FE40012001E00F003031DF22FF103031DF22F64
:020FF4000800F3
:1010000004302100A2000030A300A401A501A60124
:10101000A70122000D1520006D082100AC00200062
:101020006E082100AD00803180238831A001A1012C
:1010300080302106F000803023067002031D222834
:1010400022082002031864282000A101A201003018
:101050002206031D2D2800302106031D30282728D5
:1010600021009D149D1C352832288031A32588310C
:10107000FF307005F20071080F39F3000030F00501
:101080001030F10570087202F0007108733BF10036
:101090008031B225883121002408F4002508F500AC
:1010A0002608F6002708F7008031CC208831700828
:1010B0002100A4007108A5007208A6007308A7000B
:1010C000A00A0319A10A182820002308F000240808
:1010D000F1002508F2002608F30021002408F4009E
:1010E0002508F5002608F6002708F7008031692258
:1010F000883170082100A8007108A9007208AA00B0
:101100007308AB002808A4002908A5002A08A60037
:101110002B08A70022000D1121002208F00023084F
:10112000F1008031B22588317008F4007108F500B3
:101130007208F6007308F70021002808F00029085B
:10114000F1002A08F2002B08F3008031CC2288310C
:101150006F30F4001230F5000330F6008130F700F4
:081160008031CC228831080027
:101168002000EB01F401F501F601F7016308F00036
:101178006408F1006508F2006608F3008031322542
:1011880088310130031D0030F00070080319D5289C
:101198000030F0000030F1000030F2007F30F30042
:1011A8009829F401F501F601F7015F08F0006008DD
:1011B800F1006108F2006208F300803132258831BD
:1011C8000130031D0030F00070080319F028F00109
:1011D800F101F201F3019829F401F501F601F70193
:1011E8005F08F0006008F1006108F2006208F3008F
:1011F80080316B218831013003180030F00070080D
:1012080003193E296308F0006408F1006508F2003C
:101218006608F3008031E02188317008E700710822
:10122800E8007208E9007308EA008031BF218831BC
:101238006308F4006408F5006508F6006608F7001E
:10124800803132258831013003190030F0007008F0
:1012580003193329F001F101F201F3019829013052
:101268006705EB000030DF060030E0068030E1065D
:101278000030E2065F082100A0002000600821007D
:10128800A100200061082100A200200062082100BE
:10129800A3008031FC2688317008DF007108E00067
:1012A8007208E1007308E2006308F4006408F500BE
:1012B8006508F6006608F7008031692288317008F1
:1012C800DF007108E0007208E1007308E2007008AE
:1012D8002100A0007108A1007208A2007308A300F1
:1012E8008031CF25883170082000DF007108E000C8
:1012F8007208E1007308E2006B08031990290030B6
:101308005F06F00000306006F10080306106F200F0
:1013180000306206F30098295F08F0006008F100C9
:0A1328006108F2006208F3000800FB
:101332002000D701D801D901DA010C30CB000030EE
:10134200CC000230D5000030D6000030C70000309B
:10135200C8000030C9007F30CA000230CF00003020
:10136200D0000230D1000030D2000C30DF0000305B
:10137200E0008031DE2788318031802788310030DB
:10138200F4000030F5007A30F6008830F700803142
:10139200CC2288317008DB007108DC007208DD00A5
:1013A2007308DE004B08F0004C08F1008031B225D2
:1013B20088315B08F4005C08F5005D08F6005E0801
:1013C200F7008031692288310030F4000030F500E6
:1013D2004830F6008730F7008031CC22883170081F
:1013E200DF007108E0007208E1007308E2000030DB
:1013F200E3000030E4000030E5008030E600B42075
:101402000030F4000030F5007A30F6008830F70042
:101412008031692288317008B7007108B8007208FB
:10142200B9007308BA004F084B07F00050084C3D52
:10143200F1007008CD007108CE007008DF0071085D
:10144200E0008031DE27883101302000ED000030DD
:10145200EE0000207008C3007108C4007208C500C5
:101462007308C600D901DA010030F4000030F5003B
:101472006130F6008930F70080316B21883101300C
:1014820003180030F000700803194E2ACF01D00172
:101492000130D7000030D8006A2A4308F40044081B
:1014A200F5004508F6004608F7000030F00000306D
:1014B200F1007A30F2008930F30080316B218831FB
:1014C200013003180030F000700803196A2AD701AE
:1014D200D8010030F4000030F5006130F6008930A8
:1014E200F7004308F0004408F1004508F2004608FE
:1014F200F30080316B218831013003180030F00095
:1015020070080319A82A1930DF000030E00080318A
:10151200DE2788310D30FC00FB30FD00FD0B8F2AE9
:10152200FC0B8F2A0000000001302000ED0000308B
:10153200EE0000207008C3007108C4007208C500E4
:101542007308C6000130D9000030DA006A2ABB01F4
:10155200BC01BD01BE01D301D40180305406F000AC
:10156200803052067002031DB82A51085302031834
:10157200202B8031802788310030F4000030F500C4
:101582007A30F6008830F7008031CC22883170083A
:10159200DB007108DC007208DD007308DE004D0814
:1015A200F0004E08F1008031B22588315B08F4006A
:1015B2005C08F5005D08F6005E08F70080316922DC
:1015C20088310030F4000030F5004830F6008730F2
:1015D200F7008031CC2288317008DF007108E0000A
:1015E2007208E1007308E2000030E3000030E4001A
:1015F2000030E5008030E600B4200030F400003016
:10160200F5007A30F6008830F7008031692288319F
:101612003B08F4003C08F5003D08F6003E08F700E0
:101622008031CC2088317008BB007108BC00720880
:10163200BD007308BE00D30A0319D40AAE2A5108AA
:10164200F0005208F1008031B22588317008F400B0
:101652007108F5007208F6007308F7003B08F00005
:101662003C08F1003D08F2003E08F3008031CC2234
:1016720088317008BB007108BC007208BD00730895
:10168200BE0000305A06031D482B00305906031DC8
:10169200752C3708F4003808F5003908F6003A08C6
:1016A200F7003B08F0003C08F1003D08F2003E085C
:1016B200F3008031BA2188317008BF007108C00080
:1016C2007208C1007308C20000305006031D6B2B64
:1016D20000304F06031DBA2B3F08F4004008F50006
:1016E2004108F6004208F7004708F0004808F100F8
:1016F2004908F2004A08F30080316B218831013039
:1017020003180030F00070080319932B00305806BC
:10171200031D8D2B00305706031D932B5508CF0058
:101722005608D00000304706F40000304806F500A5
:1017320080304906F60000304A06F7003F08F00004
:101742004008F1004108F2004208F30080316B21A9
:101752008831013003180030F00070080319B92BEA
:101762005508003CCF005608031C013ED001D002B0
:10177200462C4708F4004808F5004908F6004A08D4
:10178200F7003F08F0004008F1004108F20042086B
:10179200F30080316B218831013003180030F000F2
:1017A20070080319ED2B3F08F4004008F5004108CA
:1017B200F6004208F700F001F101F201F301803175
:1017C2006B218831013003180030F00070080319D2
:1017D200ED2BCF01D001462C00304706F00000303F
:1017E2004806F10080304906F20000304A06F30054
:1017F2003F08F4004008F5004108F6004208F700EF
:1018020080316B218831013003180030F0007008FC
:101812000319282C3F08F4004008F5004108F6009F
:101822004208F700F001F101F201F30180316B216E
:1018320088310130031C0030F00070080319282C95
:101842004B08CD004C08CE00CF01D001462CF4014C
:10185200F501F601F7013F08F0004008F1004108E8
:10186200F2004208F30080316B2188310130031805
:101872000030F00070080319462C4F08003CCF00DE
:101882005008031C013ED001D0024F084D07F10061
:1018920050084E3DF2008030F00080307206700237
:1018A200031D552C71084B3C03185F2C5508003C56
:1018B200CF005608031C013ED001D0024F084D074D
:1018C200F10050084E3DF20080307206F000803088
:1018D2007002031D6E2C0C3071020318742C550813
:1018E200CF005608D0007D2C0C30CD000030CE0049
:1018F2005508CF005608D0004D08CB004E08CC004A
:101902003B08B7003C08B8003D08B9003E08BA00E1
:04191200142A08008B
:10191600FF302000AF00FF30B000FF30B100FF30D5
:10192600B200FF30B300FF30B4000030B500003025
:10193600B600FF30AB00FF30AC000030AD00003029
:10194600AE00FF30A700FF30A8000030A90000302D
:10195600AA0023009E1690309D0021008E170E13BC
:101966002000911EBA2C23001908F000B32C0800A1
:101976002000A101A201A301A4012830A500813005
:10198600A60021001917991219169915220091130C
:1019960093139E139A13971797141710013021006B
:1019A6009D00D1309E000F309F001330FD00FD0BCF
:1019B600DA2C0000000023008C150C158C140C1476
:1019C60021008C150C158C140C140D140C120D1111
:1019D6008E1095173D009401A601C730A500193059
:1019E6002000DF000030E0008031DE278831A201D0
:1019F600A10115142E14960101309C0001309A00A5
:101A060001309B00C030910021000E1014160B17F8
:101A16008B173D00A01623009F159C01CF309B001D
:081A26001E158B249921162DD9
:101A2E000034003400347F341834723431347E3450
:101A3E00F034FD3475347C344734583463347A349E
:101A4E00583495341D3478348234C4342E3475347D
:101A5E00A834783421347234EF34933400346F3434
:101A6E00A034923427346B344634563415346834EB
:101A7E00FF34E6345B345D34C434FF347F347E345B
:101A8E008034EF34FF347D349034E13429347D34A6
:101A9E00EC348234F6347C348234AD342B347C34E2
:101AAE000E343C34C3347B348734D13413347A341B
:081ABE0041347834D33477344D
:020000040001F9
:04000E00E23F231E8C
:00000001FF
