:020000003028A6
:1000080080312000141E12283D00A01C1228A010C8
:0E001800200014120130A0000030A1000900E9
:1000260012001E00F003031D1328F103031D1328FD
:020036000800C0
:10003800FF30200022053D00A300003020002205EB
:10004800F3002308FF39F4007408F000F101700888
:080058003D00A400111708008F
:100060002000A001A1012100191799161912991554
:100070002200911393139E139A1397179714171036
:10008000013021009D00D3309E000F309F000930C9
:10009000FD00FD0B49280000000023008C150C1505
:1000A0008C140C1421008C150C158C140C140D14CC
:1000B0000C120D118E1095173D0094010130A60011
:1000C0008F30A500A201A10115142E149601013054
:1000D0009C0001309A0001309B00C030910021004B
:1000E0000E1014302000A2000030A3001C2077283E
:020000040001F9
:04000E00E23F231E8C
:00000001FF
